{
  "_format": "hh-sol-artifact-1",
  "contractName": "Order",
  "sourceName": "contracts/Order.sol",
  "abi": [
    {
      "inputs": [
        {
          "internalType": "address",
          "name": "_tokenAddress",
          "type": "address"
        }
      ],
      "stateMutability": "nonpayable",
      "type": "constructor"
    },
    {
      "inputs": [],
      "name": "NotAnAdmin",
      "type": "error"
    },
    {
      "inputs": [],
      "name": "OrderIdAlreadyExist",
      "type": "error"
    },
    {
      "anonymous": false,
      "inputs": [
        {
          "indexed": true,
          "internalType": "string",
          "name": "_status",
          "type": "string"
        },
        {
          "indexed": true,
          "internalType": "uint256",
          "name": "_id",
          "type": "uint256"
        },
        {
          "indexed": true,
          "internalType": "string",
          "name": "_product_name",
          "type": "string"
        }
      ],
      "name": "OrderCreated",
      "type": "event"
    },
    {
      "inputs": [],
      "name": "TokenContract",
      "outputs": [
        {
          "internalType": "address",
          "name": "",
          "type": "address"
        }
      ],
      "stateMutability": "view",
      "type": "function"
    },
    {
      "inputs": [
        {
          "internalType": "uint256",
          "name": "",
          "type": "uint256"
        }
      ],
      "name": "adminAddress",
      "outputs": [
        {
          "internalType": "address",
          "name": "",
          "type": "address"
        }
      ],
      "stateMutability": "view",
      "type": "function"
    },
    {
      "inputs": [],
      "name": "getAllOrderDetails",
      "outputs": [
        {
          "components": [
            {
              "internalType": "address",
              "name": "walletAddress",
              "type": "address"
            },
            {
              "internalType": "uint256",
              "name": "id",
              "type": "uint256"
            },
            {
              "internalType": "string",
              "name": "product_name",
              "type": "string"
            },
            {
              "internalType": "string",
              "name": "product_description",
              "type": "string"
            },
            {
              "internalType": "uint256",
              "name": "price",
              "type": "uint256"
            }
          ],
          "internalType": "struct Order.OrderDetails[]",
          "name": "",
          "type": "tuple[]"
        }
      ],
      "stateMutability": "view",
      "type": "function"
    },
    {
      "inputs": [
        {
          "internalType": "address",
          "name": "_walletAddress",
          "type": "address"
        }
      ],
      "name": "getOrderDetailsByAddress",
      "outputs": [
        {
          "components": [
            {
              "internalType": "address",
              "name": "walletAddress",
              "type": "address"
            },
            {
              "internalType": "uint256",
              "name": "id",
              "type": "uint256"
            },
            {
              "internalType": "string",
              "name": "product_name",
              "type": "string"
            },
            {
              "internalType": "string",
              "name": "product_description",
              "type": "string"
            },
            {
              "internalType": "uint256",
              "name": "price",
              "type": "uint256"
            }
          ],
          "internalType": "struct Order.OrderDetails[]",
          "name": "",
          "type": "tuple[]"
        }
      ],
      "stateMutability": "view",
      "type": "function"
    },
    {
      "inputs": [
        {
          "internalType": "address",
          "name": "user",
          "type": "address"
        }
      ],
      "name": "getUserTokenBalance",
      "outputs": [
        {
          "internalType": "uint256",
          "name": "",
          "type": "uint256"
        }
      ],
      "stateMutability": "view",
      "type": "function"
    },
    {
      "inputs": [
        {
          "internalType": "uint256",
          "name": "",
          "type": "uint256"
        }
      ],
      "name": "orderStruct",
      "outputs": [
        {
          "internalType": "address",
          "name": "walletAddress",
          "type": "address"
        },
        {
          "internalType": "uint256",
          "name": "id",
          "type": "uint256"
        },
        {
          "internalType": "string",
          "name": "product_name",
          "type": "string"
        },
        {
          "internalType": "string",
          "name": "product_description",
          "type": "string"
        },
        {
          "internalType": "uint256",
          "name": "price",
          "type": "uint256"
        }
      ],
      "stateMutability": "view",
      "type": "function"
    },
    {
      "inputs": [
        {
          "internalType": "address",
          "name": "walletAddress",
          "type": "address"
        },
        {
          "internalType": "uint256",
          "name": "id",
          "type": "uint256"
        },
        {
          "internalType": "string",
          "name": "product_name",
          "type": "string"
        },
        {
          "internalType": "string",
          "name": "product_description",
          "type": "string"
        },
        {
          "internalType": "uint256",
          "name": "price",
          "type": "uint256"
        }
      ],
      "name": "saveOrder",
      "outputs": [],
      "stateMutability": "nonpayable",
      "type": "function"
    },
    {
      "inputs": [
        {
          "internalType": "uint256",
          "name": "",
          "type": "uint256"
        }
      ],
      "name": "userAddress",
      "outputs": [
        {
          "internalType": "address",
          "name": "",
          "type": "address"
        }
      ],
      "stateMutability": "view",
      "type": "function"
    }
  ],
  "bytecode": "0x608060405234801561001057600080fd5b506040516110da3803806110da83398101604081905261002f91610054565b600080546001600160a01b0319166001600160a01b0392909216919091179055610084565b60006020828403121561006657600080fd5b81516001600160a01b038116811461007d57600080fd5b9392505050565b611047806100936000396000f3fe608060405234801561001057600080fd5b50600436106100885760003560e01c80639674a0ac1161005b5780639674a0ac146100f75780639688738b14610122578063eebc3e6514610135578063f5aec88c1461014857600080fd5b8063020731e01461008d57806315be6672146100a2578063579366e3146100cb5780636bc184b4146100ef575b600080fd5b6100a061009b366004610c06565b610169565b005b6100b56100b0366004610c8c565b61045e565b6040516100c29190610cfe565b60405180910390f35b6100de6100d9366004610db0565b6106e7565b6040516100c2959493929190610dc9565b6100b5610830565b61010a610105366004610db0565b610a5a565b6040516001600160a01b0390911681526020016100c2565b60005461010a906001600160a01b031681565b61010a610143366004610db0565b610a84565b61015b610156366004610c8c565b610a94565b6040519081526020016100c2565b60008481526005602052604090205460ff1615610199576040516345127d2160e11b815260040160405180910390fd5b60006101ad82670de0b6b3a7640000610e2b565b9050806101b933610a94565b1161020b5760405162461bcd60e51b815260206004820152601a60248201527f496e73756666696369656e7420746f6b656e2062616c616e636500000000000060448201526064015b60405180910390fd5b6000546040516323b872dd60e01b8152336004820152306024820152604481018390526001600160a01b03909116906323b872dd906064016020604051808303816000875af1158015610262573d6000803e3d6000fd5b505050506040513d601f19601f820116820180604052508101906102869190610e48565b6102ca5760405162461bcd60e51b81526020600482015260156024820152745472616e73616374696f6e204661696c656421212160581b6044820152606401610202565b6040805160a0810182526001600160a01b0388811682526020808301898152838501898152606085018990526080850188905260008b8152600690935294909120835181546001600160a01b03191693169290921782555160018201559151909190600282019061033b9082610eed565b50606082015160038201906103509082610eed565b50608091909101516004909101556003805460018181019092557fc2575a0e9e593c00f959f8c92f12db2869c3395a3b0502d05e2516446f71f85b018690556000868152600560209081526040808320805460ff1916851790556001600160a01b038a168352600782528083208054948501815583529120909101869055516103da908590610fad565b6040518091039020856040518060400160405280601d81526020017f526571756573742070726f6365737365642073756365737366756c6c790000008152506040516104269190610fad565b604051908190038120907f27bf8580708798a7156e53cb88013f04e06102e5fa0cc7222e883053d34a951d90600090a4505050505050565b6001600160a01b03811660009081526007602090815260408083208054825181850281018501909352808352606094938301828280156104bd57602002820191906000526020600020905b8154815260200190600101908083116104a9575b505050505090506000815167ffffffffffffffff8111156104e0576104e0610b63565b60405190808252806020026020018201604052801561051957816020015b610506610b0f565b8152602001906001900390816104fe5790505b50905060005b82518110156106df57600083828151811061053c5761053c610fc9565b602090810291909101810151600081815260068352604090819020815160a08101835281546001600160a01b0316815260018201549481019490945260028101805493955090929184019161059090610e6a565b80601f01602080910402602001604051908101604052809291908181526020018280546105bc90610e6a565b80156106095780601f106105de57610100808354040283529160200191610609565b820191906000526020600020905b8154815290600101906020018083116105ec57829003601f168201915b5050505050815260200160038201805461062290610e6a565b80601f016020809104026020016040519081016040528092919081815260200182805461064e90610e6a565b801561069b5780601f106106705761010080835404028352916020019161069b565b820191906000526020600020905b81548152906001019060200180831161067e57829003601f168201915b505050505081526020016004820154815250508383815181106106c0576106c0610fc9565b60200260200101819052505080806106d790610fdf565b91505061051f565b509392505050565b6006602052600090815260409020805460018201546002830180546001600160a01b0390931693919261071990610e6a565b80601f016020809104026020016040519081016040528092919081815260200182805461074590610e6a565b80156107925780601f1061076757610100808354040283529160200191610792565b820191906000526020600020905b81548152906001019060200180831161077557829003601f168201915b5050505050908060030180546107a790610e6a565b80601f01602080910402602001604051908101604052809291908181526020018280546107d390610e6a565b80156108205780601f106107f557610100808354040283529160200191610820565b820191906000526020600020905b81548152906001019060200180831161080357829003601f168201915b5050505050908060040154905085565b60035460609060009067ffffffffffffffff81111561085157610851610b63565b60405190808252806020026020018201604052801561088a57816020015b610877610b0f565b81526020019060019003908161086f5790505b50905060005b600354811015610a54576000600382815481106108af576108af610fc9565b600091825260208083209091015480835260068252604092839020835160a08101855281546001600160a01b03168152600182015493810193909352600281018054929550929390929084019161090590610e6a565b80601f016020809104026020016040519081016040528092919081815260200182805461093190610e6a565b801561097e5780601f106109535761010080835404028352916020019161097e565b820191906000526020600020905b81548152906001019060200180831161096157829003601f168201915b5050505050815260200160038201805461099790610e6a565b80601f01602080910402602001604051908101604052809291908181526020018280546109c390610e6a565b8015610a105780601f106109e557610100808354040283529160200191610a10565b820191906000526020600020905b8154815290600101906020018083116109f357829003601f168201915b50505050508152602001600482015481525050838381518110610a3557610a35610fc9565b6020026020010181905250508080610a4c90610fdf565b915050610890565b50919050565b60028181548110610a6a57600080fd5b6000918252602090912001546001600160a01b0316905081565b60018181548110610a6a57600080fd5b600080546040516370a0823160e01b81526001600160a01b03848116600483015290911690829082906370a0823190602401602060405180830381865afa158015610ae3573d6000803e3d6000fd5b505050506040513d601f19601f82011682018060405250810190610b079190610ff8565b949350505050565b6040518060a0016040528060006001600160a01b03168152602001600081526020016060815260200160608152602001600081525090565b80356001600160a01b0381168114610b5e57600080fd5b919050565b634e487b7160e01b600052604160045260246000fd5b600082601f830112610b8a57600080fd5b813567ffffffffffffffff80821115610ba557610ba5610b63565b604051601f8301601f19908116603f01168101908282118183101715610bcd57610bcd610b63565b81604052838152866020858801011115610be657600080fd5b836020870160208301376000602085830101528094505050505092915050565b600080600080600060a08688031215610c1e57600080fd5b610c2786610b47565b945060208601359350604086013567ffffffffffffffff80821115610c4b57600080fd5b610c5789838a01610b79565b94506060880135915080821115610c6d57600080fd5b50610c7a88828901610b79565b95989497509295608001359392505050565b600060208284031215610c9e57600080fd5b610ca782610b47565b9392505050565b60005b83811015610cc9578181015183820152602001610cb1565b50506000910152565b60008151808452610cea816020860160208601610cae565b601f01601f19169290920160200192915050565b60006020808301818452808551808352604092508286019150828160051b87010184880160005b83811015610da257888303603f19018552815180516001600160a01b0316845287810151888501528681015160a088860181905290610d6682870182610cd2565b91505060608083015186830382880152610d808382610cd2565b6080948501519790940196909652505094870194925090860190600101610d25565b509098975050505050505050565b600060208284031215610dc257600080fd5b5035919050565b60018060a01b038616815284602082015260a060408201526000610df060a0830186610cd2565b8281036060840152610e028186610cd2565b9150508260808301529695505050505050565b634e487b7160e01b600052601160045260246000fd5b8082028115828204841417610e4257610e42610e15565b92915050565b600060208284031215610e5a57600080fd5b81518015158114610ca757600080fd5b600181811c90821680610e7e57607f821691505b602082108103610a5457634e487b7160e01b600052602260045260246000fd5b601f821115610ee857600081815260208120601f850160051c81016020861015610ec55750805b601f850160051c820191505b81811015610ee457828155600101610ed1565b5050505b505050565b815167ffffffffffffffff811115610f0757610f07610b63565b610f1b81610f158454610e6a565b84610e9e565b602080601f831160018114610f505760008415610f385750858301515b600019600386901b1c1916600185901b178555610ee4565b600085815260208120601f198616915b82811015610f7f57888601518255948401946001909101908401610f60565b5085821015610f9d5787850151600019600388901b60f8161c191681555b5050505050600190811b01905550565b60008251610fbf818460208701610cae565b9190910192915050565b634e487b7160e01b600052603260045260246000fd5b600060018201610ff157610ff1610e15565b5060010190565b60006020828403121561100a57600080fd5b505191905056fea2646970667358221220ff867d7eb4b1300d15a2fc9d7871eb5c8f7ea4f6f3cd4bfffd5a548fb67e9c2064736f6c63430008120033",
  "linkReferences": {},
  "deployedLinkReferences": {}
}